{
  "_format": "hh-sol-artifact-1",
  "contractName": "VotingToken",
  "sourceName": "contracts/voting-token.sol",
  "abi": [
    {
      "inputs": [
        {
          "internalType": "string",
          "name": "_name",
          "type": "string"
        },
        {
          "internalType": "string",
          "name": "_symbol",
          "type": "string"
        }
      ],
      "stateMutability": "nonpayable",
      "type": "constructor"
    },
    {
      "anonymous": false,
      "inputs": [
        {
          "indexed": true,
          "internalType": "address",
          "name": "owner",
          "type": "address"
        },
        {
          "indexed": true,
          "internalType": "address",
          "name": "spender",
          "type": "address"
        },
        {
          "indexed": false,
          "internalType": "uint256",
          "name": "value",
          "type": "uint256"
        }
      ],
      "name": "Approval",
      "type": "event"
    },
    {
      "anonymous": false,
      "inputs": [
        {
          "indexed": true,
          "internalType": "address",
          "name": "delegator",
          "type": "address"
        },
        {
          "indexed": true,
          "internalType": "address",
          "name": "fromDelegate",
          "type": "address"
        },
        {
          "indexed": true,
          "internalType": "address",
          "name": "toDelegate",
          "type": "address"
        }
      ],
      "name": "DelegateChanged",
      "type": "event"
    },
    {
      "anonymous": false,
      "inputs": [
        {
          "indexed": true,
          "internalType": "address",
          "name": "delegate",
          "type": "address"
        },
        {
          "indexed": false,
          "internalType": "uint256",
          "name": "previousBalance",
          "type": "uint256"
        },
        {
          "indexed": false,
          "internalType": "uint256",
          "name": "newBalance",
          "type": "uint256"
        }
      ],
      "name": "DelegateVotesChanged",
      "type": "event"
    },
    {
      "anonymous": false,
      "inputs": [
        {
          "indexed": true,
          "internalType": "address",
          "name": "from",
          "type": "address"
        },
        {
          "indexed": true,
          "internalType": "address",
          "name": "to",
          "type": "address"
        },
        {
          "indexed": false,
          "internalType": "uint256",
          "name": "value",
          "type": "uint256"
        }
      ],
      "name": "Transfer",
      "type": "event"
    },
    {
      "inputs": [],
      "name": "DOMAIN_SEPARATOR",
      "outputs": [
        {
          "internalType": "bytes32",
          "name": "",
          "type": "bytes32"
        }
      ],
      "stateMutability": "view",
      "type": "function"
    },
    {
      "inputs": [
        {
          "internalType": "address",
          "name": "owner",
          "type": "address"
        },
        {
          "internalType": "address",
          "name": "spender",
          "type": "address"
        }
      ],
      "name": "allowance",
      "outputs": [
        {
          "internalType": "uint256",
          "name": "",
          "type": "uint256"
        }
      ],
      "stateMutability": "view",
      "type": "function"
    },
    {
      "inputs": [
        {
          "internalType": "address",
          "name": "spender",
          "type": "address"
        },
        {
          "internalType": "uint256",
          "name": "amount",
          "type": "uint256"
        }
      ],
      "name": "approve",
      "outputs": [
        {
          "internalType": "bool",
          "name": "",
          "type": "bool"
        }
      ],
      "stateMutability": "nonpayable",
      "type": "function"
    },
    {
      "inputs": [
        {
          "internalType": "address",
          "name": "account",
          "type": "address"
        }
      ],
      "name": "balanceOf",
      "outputs": [
        {
          "internalType": "uint256",
          "name": "",
          "type": "uint256"
        }
      ],
      "stateMutability": "view",
      "type": "function"
    },
    {
      "inputs": [
        {
          "internalType": "address",
          "name": "account",
          "type": "address"
        },
        {
          "internalType": "uint32",
          "name": "pos",
          "type": "uint32"
        }
      ],
      "name": "checkpoints",
      "outputs": [
        {
          "components": [
            {
              "internalType": "uint32",
              "name": "fromBlock",
              "type": "uint32"
            },
            {
              "internalType": "uint224",
              "name": "votes",
              "type": "uint224"
            }
          ],
          "internalType": "struct ERC20Votes.Checkpoint",
          "name": "",
          "type": "tuple"
        }
      ],
      "stateMutability": "view",
      "type": "function"
    },
    {
      "inputs": [],
      "name": "decimals",
      "outputs": [
        {
          "internalType": "uint8",
          "name": "",
          "type": "uint8"
        }
      ],
      "stateMutability": "view",
      "type": "function"
    },
    {
      "inputs": [
        {
          "internalType": "address",
          "name": "spender",
          "type": "address"
        },
        {
          "internalType": "uint256",
          "name": "subtractedValue",
          "type": "uint256"
        }
      ],
      "name": "decreaseAllowance",
      "outputs": [
        {
          "internalType": "bool",
          "name": "",
          "type": "bool"
        }
      ],
      "stateMutability": "nonpayable",
      "type": "function"
    },
    {
      "inputs": [
        {
          "internalType": "address",
          "name": "delegatee",
          "type": "address"
        }
      ],
      "name": "delegate",
      "outputs": [],
      "stateMutability": "nonpayable",
      "type": "function"
    },
    {
      "inputs": [
        {
          "internalType": "address",
          "name": "delegatee",
          "type": "address"
        },
        {
          "internalType": "uint256",
          "name": "nonce",
          "type": "uint256"
        },
        {
          "internalType": "uint256",
          "name": "expiry",
          "type": "uint256"
        },
        {
          "internalType": "uint8",
          "name": "v",
          "type": "uint8"
        },
        {
          "internalType": "bytes32",
          "name": "r",
          "type": "bytes32"
        },
        {
          "internalType": "bytes32",
          "name": "s",
          "type": "bytes32"
        }
      ],
      "name": "delegateBySig",
      "outputs": [],
      "stateMutability": "nonpayable",
      "type": "function"
    },
    {
      "inputs": [
        {
          "internalType": "address",
          "name": "account",
          "type": "address"
        }
      ],
      "name": "delegates",
      "outputs": [
        {
          "internalType": "address",
          "name": "",
          "type": "address"
        }
      ],
      "stateMutability": "view",
      "type": "function"
    },
    {
      "inputs": [
        {
          "internalType": "uint256",
          "name": "blockNumber",
          "type": "uint256"
        }
      ],
      "name": "getPastTotalSupply",
      "outputs": [
        {
          "internalType": "uint256",
          "name": "",
          "type": "uint256"
        }
      ],
      "stateMutability": "view",
      "type": "function"
    },
    {
      "inputs": [
        {
          "internalType": "address",
          "name": "account",
          "type": "address"
        },
        {
          "internalType": "uint256",
          "name": "blockNumber",
          "type": "uint256"
        }
      ],
      "name": "getPastVotes",
      "outputs": [
        {
          "internalType": "uint256",
          "name": "",
          "type": "uint256"
        }
      ],
      "stateMutability": "view",
      "type": "function"
    },
    {
      "inputs": [
        {
          "internalType": "address",
          "name": "account",
          "type": "address"
        }
      ],
      "name": "getVotes",
      "outputs": [
        {
          "internalType": "uint256",
          "name": "",
          "type": "uint256"
        }
      ],
      "stateMutability": "view",
      "type": "function"
    },
    {
      "inputs": [
        {
          "internalType": "address",
          "name": "spender",
          "type": "address"
        },
        {
          "internalType": "uint256",
          "name": "addedValue",
          "type": "uint256"
        }
      ],
      "name": "increaseAllowance",
      "outputs": [
        {
          "internalType": "bool",
          "name": "",
          "type": "bool"
        }
      ],
      "stateMutability": "nonpayable",
      "type": "function"
    },
    {
      "inputs": [],
      "name": "name",
      "outputs": [
        {
          "internalType": "string",
          "name": "",
          "type": "string"
        }
      ],
      "stateMutability": "view",
      "type": "function"
    },
    {
      "inputs": [
        {
          "internalType": "address",
          "name": "owner",
          "type": "address"
        }
      ],
      "name": "nonces",
      "outputs": [
        {
          "internalType": "uint256",
          "name": "",
          "type": "uint256"
        }
      ],
      "stateMutability": "view",
      "type": "function"
    },
    {
      "inputs": [
        {
          "internalType": "address",
          "name": "account",
          "type": "address"
        }
      ],
      "name": "numCheckpoints",
      "outputs": [
        {
          "internalType": "uint32",
          "name": "",
          "type": "uint32"
        }
      ],
      "stateMutability": "view",
      "type": "function"
    },
    {
      "inputs": [
        {
          "internalType": "address",
          "name": "owner",
          "type": "address"
        },
        {
          "internalType": "address",
          "name": "spender",
          "type": "address"
        },
        {
          "internalType": "uint256",
          "name": "value",
          "type": "uint256"
        },
        {
          "internalType": "uint256",
          "name": "deadline",
          "type": "uint256"
        },
        {
          "internalType": "uint8",
          "name": "v",
          "type": "uint8"
        },
        {
          "internalType": "bytes32",
          "name": "r",
          "type": "bytes32"
        },
        {
          "internalType": "bytes32",
          "name": "s",
          "type": "bytes32"
        }
      ],
      "name": "permit",
      "outputs": [],
      "stateMutability": "nonpayable",
      "type": "function"
    },
    {
      "inputs": [],
      "name": "symbol",
      "outputs": [
        {
          "internalType": "string",
          "name": "",
          "type": "string"
        }
      ],
      "stateMutability": "view",
      "type": "function"
    },
    {
      "inputs": [],
      "name": "totalSupply",
      "outputs": [
        {
          "internalType": "uint256",
          "name": "",
          "type": "uint256"
        }
      ],
      "stateMutability": "view",
      "type": "function"
    },
    {
      "inputs": [
        {
          "internalType": "address",
          "name": "to",
          "type": "address"
        },
        {
          "internalType": "uint256",
          "name": "amount",
          "type": "uint256"
        }
      ],
      "name": "transfer",
      "outputs": [
        {
          "internalType": "bool",
          "name": "",
          "type": "bool"
        }
      ],
      "stateMutability": "nonpayable",
      "type": "function"
    },
    {
      "inputs": [
        {
          "internalType": "address",
          "name": "from",
          "type": "address"
        },
        {
          "internalType": "address",
          "name": "to",
          "type": "address"
        },
        {
          "internalType": "uint256",
          "name": "amount",
          "type": "uint256"
        }
      ],
      "name": "transferFrom",
      "outputs": [
        {
          "internalType": "bool",
          "name": "",
          "type": "bool"
        }
      ],
      "stateMutability": "nonpayable",
      "type": "function"
    }
  ],
  "bytecode": "0x6101406040523480156200001257600080fd5b5060405162001f6c38038062001f6c833981016040819052620000359162000292565b8180604051806040016040528060018152602001603160f81b815250848481600390805190602001906200006b9291906200011f565b508051620000819060049060208401906200011f565b5050825160208085019190912083518483012060e08290526101008190524660a0818152604080517f8b73c3c69bb8fe3d512ecc4cf759cc79239f7b179b0ffacaa9a75d522b39400f81880181905281830187905260608201869052608082019490945230818401528151808203909301835260c0019052805194019390932091935091906080523060c05261012052506200033995505050505050565b8280546200012d90620002fc565b90600052602060002090601f0160209004810192826200015157600085556200019c565b82601f106200016c57805160ff19168380011785556200019c565b828001600101855582156200019c579182015b828111156200019c5782518255916020019190600101906200017f565b50620001aa929150620001ae565b5090565b5b80821115620001aa5760008155600101620001af565b634e487b7160e01b600052604160045260246000fd5b600082601f830112620001ed57600080fd5b81516001600160401b03808211156200020a576200020a620001c5565b604051601f8301601f19908116603f01168101908282118183101715620002355762000235620001c5565b816040528381526020925086838588010111156200025257600080fd5b600091505b8382101562000276578582018301518183018401529082019062000257565b83821115620002885760008385830101525b9695505050505050565b60008060408385031215620002a657600080fd5b82516001600160401b0380821115620002be57600080fd5b620002cc86838701620001db565b93506020850151915080821115620002e357600080fd5b50620002f285828601620001db565b9150509250929050565b600181811c908216806200031157607f821691505b602082108114156200033357634e487b7160e01b600052602260045260246000fd5b50919050565b60805160a05160c05160e0516101005161012051611be3620003896000396000610f1e01526000610f6d01526000610f4801526000610ea101526000610ecb01526000610ef50152611be36000f3fe608060405234801561001057600080fd5b50600436106101825760003560e01c806370a08231116100d8578063a457c2d71161008c578063d505accf11610066578063d505accf1461034e578063dd62ed3e14610361578063f1127ed81461039a57600080fd5b8063a457c2d714610315578063a9059cbb14610328578063c3cda5201461033b57600080fd5b80638e539e8c116100bd5780638e539e8c146102e757806395d89b41146102fa5780639ab24eb01461030257600080fd5b806370a08231146102ab5780637ecebe00146102d457600080fd5b80633644e5151161013a578063587cde1e11610114578063587cde1e1461022a5780635c19a95c1461026e5780636fcfff451461028357600080fd5b80633644e515146101fc57806339509351146102045780633a46b1a81461021757600080fd5b806318160ddd1161016b57806318160ddd146101c857806323b872dd146101da578063313ce567146101ed57600080fd5b806306fdde0314610187578063095ea7b3146101a5575b600080fd5b61018f6103d7565b60405161019c9190611894565b60405180910390f35b6101b86101b3366004611905565b610469565b604051901515815260200161019c565b6002545b60405190815260200161019c565b6101b86101e836600461192f565b610481565b6040516012815260200161019c565b6101cc6104a5565b6101b8610212366004611905565b6104b4565b6101cc610225366004611905565b6104f3565b61025661023836600461196b565b6001600160a01b039081166000908152600760205260409020541690565b6040516001600160a01b03909116815260200161019c565b61028161027c36600461196b565b610572565b005b61029661029136600461196b565b61057f565b60405163ffffffff909116815260200161019c565b6101cc6102b936600461196b565b6001600160a01b031660009081526020819052604090205490565b6101cc6102e236600461196b565b6105a7565b6101cc6102f5366004611986565b6105c5565b61018f610621565b6101cc61031036600461196b565b610630565b6101b8610323366004611905565b6106b7565b6101b8610336366004611905565b610761565b6102816103493660046119b0565b61076f565b61028161035c366004611a08565b6108a5565b6101cc61036f366004611a72565b6001600160a01b03918216600090815260016020908152604080832093909416825291909152205490565b6103ad6103a8366004611aa5565b610a09565b60408051825163ffffffff1681526020928301516001600160e01b0316928101929092520161019c565b6060600380546103e690611ae5565b80601f016020809104026020016040519081016040528092919081815260200182805461041290611ae5565b801561045f5780601f106104345761010080835404028352916020019161045f565b820191906000526020600020905b81548152906001019060200180831161044257829003601f168201915b5050505050905090565b600033610477818585610a8d565b5060019392505050565b60003361048f858285610be5565b61049a858585610c77565b506001949350505050565b60006104af610e94565b905090565b3360008181526001602090815260408083206001600160a01b038716845290915281205490919061047790829086906104ee908790611b30565b610a8d565b60004382106105495760405162461bcd60e51b815260206004820152601f60248201527f4552433230566f7465733a20626c6f636b206e6f7420796574206d696e65640060448201526064015b60405180910390fd5b6001600160a01b038316600090815260086020526040902061056b9083610fbb565b9392505050565b61057c3382611078565b50565b6001600160a01b0381166000908152600860205260408120546105a190611109565b92915050565b6001600160a01b0381166000908152600560205260408120546105a1565b60004382106106165760405162461bcd60e51b815260206004820152601f60248201527f4552433230566f7465733a20626c6f636b206e6f7420796574206d696e6564006044820152606401610540565b6105a1600983610fbb565b6060600480546103e690611ae5565b6001600160a01b03811660009081526008602052604081205480156106a4576001600160a01b0383166000908152600860205260409020610672600183611b48565b8154811061068257610682611b5f565b60009182526020909120015464010000000090046001600160e01b03166106a7565b60005b6001600160e01b03169392505050565b3360008181526001602090815260408083206001600160a01b0387168452909152812054909190838110156107545760405162461bcd60e51b815260206004820152602560248201527f45524332303a2064656372656173656420616c6c6f77616e63652062656c6f7760448201527f207a65726f0000000000000000000000000000000000000000000000000000006064820152608401610540565b61049a8286868403610a8d565b600033610477818585610c77565b834211156107bf5760405162461bcd60e51b815260206004820152601d60248201527f4552433230566f7465733a207369676e617475726520657870697265640000006044820152606401610540565b604080517fe48329057bfd03d55e49b547132e39cffd9c1820ad7b9d4c5307691425d15adf60208201526001600160a01b038816918101919091526060810186905260808101859052600090610839906108319060a00160405160208183030381529060405280519060200120611189565b8585856111f2565b90506108448161121a565b86146108925760405162461bcd60e51b815260206004820152601960248201527f4552433230566f7465733a20696e76616c6964206e6f6e6365000000000000006044820152606401610540565b61089c8188611078565b50505050505050565b834211156108f55760405162461bcd60e51b815260206004820152601d60248201527f45524332305065726d69743a206578706972656420646561646c696e650000006044820152606401610540565b60007f6e71edae12b1b97f4d1f60370fef10105fa2faae0126114a169c64845d6126c98888886109248c61121a565b6040805160208101969096526001600160a01b0394851690860152929091166060840152608083015260a082015260c0810186905260e001604051602081830303815290604052805190602001209050600061097f82611189565b9050600061098f828787876111f2565b9050896001600160a01b0316816001600160a01b0316146109f25760405162461bcd60e51b815260206004820152601e60248201527f45524332305065726d69743a20696e76616c6964207369676e617475726500006044820152606401610540565b6109fd8a8a8a610a8d565b50505050505050505050565b60408051808201909152600080825260208201526001600160a01b0383166000908152600860205260409020805463ffffffff8416908110610a4d57610a4d611b5f565b60009182526020918290206040805180820190915291015463ffffffff8116825264010000000090046001600160e01b0316918101919091529392505050565b6001600160a01b038316610b085760405162461bcd60e51b8152602060048201526024808201527f45524332303a20617070726f76652066726f6d20746865207a65726f2061646460448201527f72657373000000000000000000000000000000000000000000000000000000006064820152608401610540565b6001600160a01b038216610b845760405162461bcd60e51b815260206004820152602260248201527f45524332303a20617070726f766520746f20746865207a65726f20616464726560448201527f73730000000000000000000000000000000000000000000000000000000000006064820152608401610540565b6001600160a01b0383811660008181526001602090815260408083209487168084529482529182902085905590518481527f8c5be1e5ebec7d5bd14f71427d1e84f3dd0314c0f7b2291e5b200ac8c7c3b925910160405180910390a3505050565b6001600160a01b038381166000908152600160209081526040808320938616835292905220546000198114610c715781811015610c645760405162461bcd60e51b815260206004820152601d60248201527f45524332303a20696e73756666696369656e7420616c6c6f77616e63650000006044820152606401610540565b610c718484848403610a8d565b50505050565b6001600160a01b038316610cf35760405162461bcd60e51b815260206004820152602560248201527f45524332303a207472616e736665722066726f6d20746865207a65726f20616460448201527f64726573730000000000000000000000000000000000000000000000000000006064820152608401610540565b6001600160a01b038216610d6f5760405162461bcd60e51b815260206004820152602360248201527f45524332303a207472616e7366657220746f20746865207a65726f206164647260448201527f65737300000000000000000000000000000000000000000000000000000000006064820152608401610540565b6001600160a01b03831660009081526020819052604090205481811015610dfe5760405162461bcd60e51b815260206004820152602660248201527f45524332303a207472616e7366657220616d6f756e742065786365656473206260448201527f616c616e636500000000000000000000000000000000000000000000000000006064820152608401610540565b6001600160a01b03808516600090815260208190526040808220858503905591851681529081208054849290610e35908490611b30565b92505081905550826001600160a01b0316846001600160a01b03167fddf252ad1be2c89b69c2b068fc378daa952ba7f163c4a11628f55a4df523b3ef84604051610e8191815260200190565b60405180910390a3610c71848484611247565b6000306001600160a01b037f000000000000000000000000000000000000000000000000000000000000000016148015610eed57507f000000000000000000000000000000000000000000000000000000000000000046145b15610f1757507f000000000000000000000000000000000000000000000000000000000000000090565b50604080517f00000000000000000000000000000000000000000000000000000000000000006020808301919091527f0000000000000000000000000000000000000000000000000000000000000000828401527f000000000000000000000000000000000000000000000000000000000000000060608301524660808301523060a0808401919091528351808403909101815260c0909201909252805191012090565b8154600090815b8181101561101f576000610fd68284611252565b905084868281548110610feb57610feb611b5f565b60009182526020909120015463ffffffff16111561100b57809250611019565b611016816001611b30565b91505b50610fc2565b81156110635784611031600184611b48565b8154811061104157611041611b5f565b60009182526020909120015464010000000090046001600160e01b0316611066565b60005b6001600160e01b031695945050505050565b6001600160a01b038281166000818152600760208181526040808420805485845282862054949093528787167fffffffffffffffffffffffff00000000000000000000000000000000000000008416811790915590519190951694919391928592917f3134e8a2e6d97e929a7e54011ea5485d7d196dd5f0ba4d4ef95803e8e3fc257f9190a4610c7182848361126d565b600063ffffffff8211156111855760405162461bcd60e51b815260206004820152602660248201527f53616665436173743a2076616c756520646f65736e27742066697420696e203360448201527f32206269747300000000000000000000000000000000000000000000000000006064820152608401610540565b5090565b60006105a1611196610e94565b836040517f19010000000000000000000000000000000000000000000000000000000000006020820152602281018390526042810182905260009060620160405160208183030381529060405280519060200120905092915050565b6000806000611203878787876113aa565b9150915061121081611497565b5095945050505050565b6001600160a01b03811660009081526005602052604090208054600181018255905b50919050565b505050565b611242838383611652565b60006112616002848418611b75565b61056b90848416611b30565b816001600160a01b0316836001600160a01b03161415801561128f5750600081115b15611242576001600160a01b0383161561131d576001600160a01b038316600090815260086020526040812081906112ca9061168485611690565b91509150846001600160a01b03167fdec2bacdd2f05b59de34da9b523dff8be42e5e38e818c82fdb0bae774387a7248383604051611312929190918252602082015260400190565b60405180910390a250505b6001600160a01b03821615611242576001600160a01b038216600090815260086020526040812081906113539061180985611690565b91509150836001600160a01b03167fdec2bacdd2f05b59de34da9b523dff8be42e5e38e818c82fdb0bae774387a724838360405161139b929190918252602082015260400190565b60405180910390a25050505050565b6000807f7fffffffffffffffffffffffffffffff5d576e7357a4501ddfe92f46681b20a08311156113e1575060009050600361148e565b8460ff16601b141580156113f957508460ff16601c14155b1561140a575060009050600461148e565b6040805160008082526020820180845289905260ff881692820192909252606081018690526080810185905260019060a0016020604051602081039080840390855afa15801561145e573d6000803e3d6000fd5b5050604051601f1901519150506001600160a01b0381166114875760006001925092505061148e565b9150600090505b94509492505050565b60008160048111156114ab576114ab611b97565b14156114b45750565b60018160048111156114c8576114c8611b97565b14156115165760405162461bcd60e51b815260206004820152601860248201527f45434453413a20696e76616c6964207369676e617475726500000000000000006044820152606401610540565b600281600481111561152a5761152a611b97565b14156115785760405162461bcd60e51b815260206004820152601f60248201527f45434453413a20696e76616c6964207369676e6174757265206c656e677468006044820152606401610540565b600381600481111561158c5761158c611b97565b14156115e55760405162461bcd60e51b815260206004820152602260248201527f45434453413a20696e76616c6964207369676e6174757265202773272076616c604482015261756560f01b6064820152608401610540565b60048160048111156115f9576115f9611b97565b141561057c5760405162461bcd60e51b815260206004820152602260248201527f45434453413a20696e76616c6964207369676e6174757265202776272076616c604482015261756560f01b6064820152608401610540565b6001600160a01b038381166000908152600760205260408082205485841683529120546112429291821691168361126d565b600061056b8284611b48565b8254600090819080156116db57856116a9600183611b48565b815481106116b9576116b9611b5f565b60009182526020909120015464010000000090046001600160e01b03166116de565b60005b6001600160e01b031692506116f783858763ffffffff16565b915060008111801561173557504386611711600184611b48565b8154811061172157611721611b5f565b60009182526020909120015463ffffffff16145b156117955761174382611815565b8661174f600184611b48565b8154811061175f5761175f611b5f565b9060005260206000200160000160046101000a8154816001600160e01b0302191690836001600160e01b03160217905550611800565b8560405180604001604052806117aa43611109565b63ffffffff1681526020016117be85611815565b6001600160e01b0390811690915282546001810184556000938452602093849020835194909301519091166401000000000263ffffffff909316929092179101555b50935093915050565b600061056b8284611b30565b60006001600160e01b038211156111855760405162461bcd60e51b815260206004820152602760248201527f53616665436173743a2076616c756520646f65736e27742066697420696e203260448201527f32342062697473000000000000000000000000000000000000000000000000006064820152608401610540565b600060208083528351808285015260005b818110156118c1578581018301518582016040015282016118a5565b818111156118d3576000604083870101525b50601f01601f1916929092016040019392505050565b80356001600160a01b038116811461190057600080fd5b919050565b6000806040838503121561191857600080fd5b611921836118e9565b946020939093013593505050565b60008060006060848603121561194457600080fd5b61194d846118e9565b925061195b602085016118e9565b9150604084013590509250925092565b60006020828403121561197d57600080fd5b61056b826118e9565b60006020828403121561199857600080fd5b5035919050565b803560ff8116811461190057600080fd5b60008060008060008060c087890312156119c957600080fd5b6119d2876118e9565b955060208701359450604087013593506119ee6060880161199f565b92506080870135915060a087013590509295509295509295565b600080600080600080600060e0888a031215611a2357600080fd5b611a2c886118e9565b9650611a3a602089016118e9565b95506040880135945060608801359350611a566080890161199f565b925060a0880135915060c0880135905092959891949750929550565b60008060408385031215611a8557600080fd5b611a8e836118e9565b9150611a9c602084016118e9565b90509250929050565b60008060408385031215611ab857600080fd5b611ac1836118e9565b9150602083013563ffffffff81168114611ada57600080fd5b809150509250929050565b600181811c90821680611af957607f821691505b6020821081141561123c57634e487b7160e01b600052602260045260246000fd5b634e487b7160e01b600052601160045260246000fd5b60008219821115611b4357611b43611b1a565b500190565b600082821015611b5a57611b5a611b1a565b500390565b634e487b7160e01b600052603260045260246000fd5b600082611b9257634e487b7160e01b600052601260045260246000fd5b500490565b634e487b7160e01b600052602160045260246000fdfea2646970667358221220c1b9cd984adf951c59132ad9cddd22029411657abc50803ce617a276e5ef102f64736f6c63430008090033",
  "linkReferences": {},
  "deployedLinkReferences": {}
}