{
  "_format": "hh-sol-artifact-1",
  "contractName": "CallMe",
  "sourceName": "contracts/TestContracts/callme.sol",
  "abi": [
    {
      "inputs": [
        {
          "internalType": "uint256",
          "name": "j",
          "type": "uint256"
        }
      ],
      "name": "callMe",
      "outputs": [],
      "stateMutability": "nonpayable",
      "type": "function"
    },
    {
      "inputs": [],
      "name": "getData",
      "outputs": [
        {
          "internalType": "bytes",
          "name": "",
          "type": "bytes"
        }
      ],
      "stateMutability": "pure",
      "type": "function"
    },
    {
      "inputs": [],
      "name": "i",
      "outputs": [
        {
          "internalType": "uint256",
          "name": "",
          "type": "uint256"
        }
      ],
      "stateMutability": "view",
      "type": "function"
    }
  ],
  "bytecode": "0x608060405234801561001057600080fd5b506101f4806100206000396000f3fe608060405234801561001057600080fd5b50600436106100415760003560e01c80633bc5de3014610046578063e5aa3d58146100cc578063e73620c3146100e3575b600080fd5b6100b6604051607b602482015260609060440160408051601f198184030181529190526020810180517bffffffffffffffffffffffffffffffffffffffffffffffffffffffff167fe73620c300000000000000000000000000000000000000000000000000000000179052919050565b6040516100c39190610111565b60405180910390f35b6100d560005481565b6040519081526020016100c3565b6100f66100f1366004610166565b6100f8565b005b80600080828254610109919061017f565b909155505050565b600060208083528351808285015260005b8181101561013e57858101830151858201604001528201610122565b81811115610150576000604083870101525b50601f01601f1916929092016040019392505050565b60006020828403121561017857600080fd5b5035919050565b600082198211156101b9577f4e487b7100000000000000000000000000000000000000000000000000000000600052601160045260246000fd5b50019056fea26469706673582212200b5fe80368b69febace153b69bb9ff7e14e0ec12e5bd9143f6746c714441484664736f6c63430008090033",
  "linkReferences": {},
  "deployedLinkReferences": {}
}